:020000040800F2
:10000000780500200D230008DD210008DF2100080D
:10001000E1210008E3210008E521000800000000BC
:10002000000000000000000000000000E7210008C0
:10003000E921000800000000EB210008ED21000884
:100040004123000845230008492300084D230008E8
:100050005123000855230008592300085D23000898
:100060006123000865230008692300086D23000848
:100070007123000875230008792300087D230008F8
:100080008123000885230008892300088D230008A8
:100090009123000895230008992300089D23000858
:1000A000A1230008A5230008A9230008AD23000808
:1000B000B1230008B5230008B9230008BD230008B8
:1000C000C1230008C5230008C9230008CD23000868
:1000D000D1230008FB210008D5230008D9230008FC
:1000E000DD230008E1230008E5230008E9230008D8
:1000F000ED230008F1230008F5230008F923000888
:10010000FD23000801240008052400080924000834
:100110000D240008112400080122000815240008FD
:10012000192400081D2400080722000821240008C3
:1001300025240008292400082D2400083124000863
:1001400035240008392400083D2400084124000813
:1001500045240008492400084D24000851240008C3
:1001600055240008592400085D2400086124000873
:1001700065240008692400086D24000800000000C0
:10018000712400087524000838B5040001D101204D
:1001900032BD00F04BF818B900F044F800F05BFBFA
:1001A0000AE00068C16841F00101C160026842F0E4
:1001B000010202600020704702206870211D206843
:1001C00000F0BEF901206870002032BD03D1416CFF
:1001D00041F400414164026842F0010202600020E3
:1001E00016BD38B5040001D1012032BD00F01EF863
:1001F00018B900F017F800F001FCDDE71CB500F0BD
:1002000007F800F00AF81CBFDFF828108842DDE785
:1002100004460122206800F008BA2068DFF81810B0
:1002200088427047002129702046704704F1380544
:1002300068787047000401400000014010B5044692
:10024000206801698A0715D5C1688A0712D56FF041
:100250000202026101212176806910F0030F20461D
:1002600002D000F0CCFB03E000F0CAFB00F087F8FE
:1002700000202076206801694A0715D5C1684A0721
:1002800012D56FF00402026102212176806910F418
:10029000407F204602D000F0B2FB03E000F0B0FB4C
:1002A00000F06DF800202076206801690A0715D556
:1002B000C1680A0712D56FF0080202610421217695
:1002C000C06910F0030F204602D000F098FB03E055
:1002D00000F096FB00F053F80020207620680169BA
:1002E000CA0615D5C168CA0612D56FF010020261A0
:1002F00008212176C06910F4407F204602D000F02A
:100300007EFB03E000F07CFB00F039F80020207653
:1003100020680169CA0708D5C168CA0705D56FF00A
:1003200001020261204600F06DFB206801690A06A7
:1003300008D5C1680A0605D56FF080020261204623
:1003400000F0F7FC206801694A0608D5C1684A0632
:1003500005D56FF040020261204600F0EBFC2068FA
:1003600001698A060AD5C1688A0607D56FF020029E
:1003700002612046BDE8104000F0DDBC10BD204603
:1003800000F0DABC70B500F065F801D1022070BD54
:1003900000F067F832B1042A17D0082A28D00C2AB6
:1003A00039D04AE03068294600F049F9306881695F
:1003B00041F0080100F04AF821F004018161316840
:1003C0008A69286902438A6137E03068294600F06B
:1003D000FFF83068816941F4006100F037F821F4DA
:1003E000806100F033F82A6941EA0221816124E04A
:1003F0003068294600F048F93068C16941F00801C9
:1004000000F020F821F00401C1613168CA6928694F
:100410000243CA6111E03068294600F063F9306890
:10042000C16941F4006100F00DF821F4806100F031
:1004300009F82A6941EA0221C161012060700020A7
:10044000207070BDC1613068C169704781613068DA
:1004500081697047064606F138040D462078012868
:1004600070470121217002206070704738B500F09C
:100470005CF801D1022032BD01222270022060709E
:100480002A68DFF8A8029368034093600868002890
:1004900037D0102837D0202837D0302837D0402800
:1004A0002BD050281ED0602820D070280BD0B0F55B
:1004B000805F03D0B0F5005F0CD02CE02868816825
:1004C000C908C9000CE000F027F82868816841F0ED
:1004D000770105E000F020F82868816841F4804148
:1004E000816018E000F01DF8502111E0CA684968E9
:1004F000286800F044F960210AE000F012F8402179
:1005000006E0002104E0102102E0202100E030217B
:10051000286800F046F90EE0CB684A6889682868C8
:1005200047E1CA684968286818E1054605F13804BA
:10053000207801287047012060700020207032BDB3
:10054000F0B57B4C05687B4B7B4E7C4FDFF8F0C1F0
:10055000A04218BFB0F1804F07D0604518BFB84225
:1005600003D0B04218BF98420DD14A6825F07005FB
:100570001543A04218BFB0F1804F17D060451CBF93
:10058000B842B04212D098421CBF6E4A90420DD081
:100590006D4A90421CBF6D4A904207D06C4A90420F
:1005A0001FBF6C4A90426C4A904203D1CA6825F43E
:1005B000407515430560A0428A68C2620A6882627B
:1005C00012BF98420969016301214161F0BD000039
:1005D00070B5026A564E22F010020262B042056AFD
:1005E000436884690A6824F4E64444EA02248A6879
:1005F00025F020051CBF4F4EB04245EA02150DD133
:10060000CA684E6925F0800545EA02158A6923F417
:100610004063164325F0400543EA86034360846146
:1006200049688163056270BD000010B5036A01244A
:100630008C40A343036202FA01F1036A9CE030B5E7
:10064000026A520852000262056A4368846900F037
:1006500043F825F002051543354A90421CBF354A40
:1006600090420BD123F44073CA6825F00805154366
:100670004A6913438A6925F0040513434360846182
:1006800049684163056230BD70B5026A284E22F4A4
:1006900080720262056A4368C46900F01DF8B042C6
:1006A00025F400751CBF234EB04245EA02250DD14A
:1006B000CA684E6925F4006545EA02258A6923F473
:1006C0004053164325F4806543EA06134360C46132
:1006D0004968C163056270BD0A6824F0730414435D
:1006E0008A68704770B5026A114E22F48052026225
:1006F000B042046A4268C3690D6823F4E64343EAE2
:1007000005238D6824F400541CBF0A4EB04244EA0D
:10071000053404D14D6922F4804242EA85124260D8
:10072000C36149680164046270BD00008800FFFF76
:100730000000014000040140000C0040000800409F
:1007400000040040004001400044014000480140D6
:1007500000180040001C00400020004010B5036A53
:10076000046A64086400046223F00A03846924F0C4
:10077000F00444EA021484611943016210BD10B50B
:10078000036A23F0100303628369046A23F470434D
:1007900043EA023324F0A004836144EA01140462B2
:1007A00010BD826822F07002114341F007018160A0
:1007B000704710B5846824F47F442143114341EA13
:1007C0000321816010BD000080B500200090002250
:1007D0006E48416841F480414160416801F48041C4
:1007E000009100990092036843F080530360006811
:1007F00000F0805000900098032000F0AEFA002234
:1008000000216FF00B0000F0B5FA002200216FF01C
:100810000A0000F0AFFA002200216FF0090000F09A
:10082000A9FA002200216FF0040000F0A3FA0022D0
:1008300000216FF0030000F09DFA002200216FF00C
:10084000010000F097FABDE80840002200214FF0B7
:10085000FF3000F08FBA80B500684D4A4B49904296
:1008600009D1002000900A6842F004020A6008687A
:1008700000F0040023E0474A904214D10020009089
:100880000A6842F010020A600022086800F01000B6
:10089000009000210098362000F06CFABDE802407C
:1008A000362000F084BA3C4A90420AD100200090E1
:1008B0000A6842F020020A60086800F020000090F8
:1008C000009801BD00683249884200D0704700B5E9
:1008D00085B04FF4704100910220002101900291F7
:1008E000032002210390049169462C4800F09AFAF3
:1008F00005B000BD38B5044686B020682849884256
:1009000041D100212748284D0091C021026842F0C2
:10091000100202600222006800F0100000900098AF
:100920000191012003900321072004910590029278
:1009300001A91E4800F076FA4FF0006068600020C0
:10094000A860E8604FF48060286100206861A861B9
:100950004FF48070E86100201549286268622960C0
:10096000284600F055FB20B15FF0EB0111A000F02C
:10097000DFF96563AC6300220021252000F0FAF95D
:10098000252000F014FA07B030BD000040380240C6
:10099000000800400010004000140040000C02401D
:1009A00000100140443802401000002000040240C2
:1009B00040640240433A5C55736572735C41535521
:1009C000535C4465736B746F705C447563486F630C
:1009D00041524D5C526F626F745F76315C484F5488
:1009E0005C5372635C73746D3332663478785F681D
:1009F000616C5F6D73702E6300000000704770477C
:100A00007047000038B5BA4C00682169884217D198
:100A10002078012808D0B74D284600F07EFD072237
:100A20002146284600F030FDA0796072607920727E
:100A30002079E072E078A07260782073A07860730B
:100A400031BD70B586B000F0ABFF00F0B0F800200B
:100A5000A94CAA4EA54D0090216841F0800121606B
:100A60000021206800F0800000900098009122682A
:100A700042F002022260206800F00200009000981C
:100A800000914FF40041226842F0080222600022E7
:100A9000206800F0080000900098304600F09BFAB3
:100AA00000224FF46061284600F095FA4FF40040B0
:100AB00000F075F8304601A900F0B4F94FF4606019
:100AC00000F06DF8284601A900F0ACF90020009074
:100AD0000022216841F4800121600021206800F497
:100AE0008000009000983A2000F044F93A2000F08D
:100AF0005EF98048824901604FF41641416000214F
:100B00008160C16001610C21416100218161C1618D
:100B100000F07EFC00B1FEE700F0A0F8794C7A48C6
:100B20002060542060600020A06040F2E730E06068
:100B30002046FFF729FB00F0F5F82046694600F053
:100B400049FF00B1FEE76A4D7048286100206861E6
:100B5000A861E86105F11000FFF716FB00F0E2F86C
:100B600005F11000694600F035FF00B1FEE705F120
:100B70001000FFF716FB2046FFF713FB5A4C00212D
:100B800000F00AF8042100F007F8082100F004F84A
:100B90000C2100F001F8FEE7201DFFF72FBB01211B
:100BA000019002910020032103900491704780B5C9
:100BB00092B0002000905648016841F080510160D9
:100BC0000021006800F0805000900098514800918A
:100BD0000121026842F4804202604FF480320068D2
:100BE00000F4804000900098069102200C904FF491
:100BF00080010D9108200E904FF4A8710F910220F2
:100C0000109004210792119106A800F009FF00B18D
:100C1000FEE70F21019102200021029003914FF481
:100C2000A0504FF480510490059101A8052101F0D6
:100C30006FF800B1FEE701F0F0F84FF47A71B0FB05
:100C4000F1F000F0BEF8042000F0CFF800220021FF
:100C50004FF0FF3000F08EF813B000BD2E4818B5ED
:100C6000214C60600920A0608DB00020E0604FF44E
:100C70007A70206100206061201DFFF785FA00B1C5
:100C8000FEE74FF480510991201D09A9FFF7EEFB03
:100C900000B1FEE7201DFFF7A4FA00F043F8201D85
:100CA000694600F097FE00B1FEE760200021029047
:100CB000039104910691002200F030F800B1FEE7A4
:100CC000042200F02BF800B1FEE7082200F026F81D
:100CD00000B1FEE70C2200F021F800B1FEE7201D74
:100CE000FFF7F0FD0EB010BDBC000020000C02406C
:100CF00070000020FC000020303802400004024058
:100D0000001001403C010020001000400014004091
:100D100040380240007000400008004002A9201D39
:100D2000FFF730BB00B1FEE7002100900191704752
:100D3000FEE77047704770477047000009010200E6
:100D400081B006D52F4A00F00F00104400F8041CB3
:100D500001E02D4B195401B070472C4A13684FF62F
:100D6000FF0100020B4000F4E060184328490843EB
:100D70001060704738B5254B1C68C4F30223C3F1DB
:100D80000704052C28BF04241D1D072D34BF002394
:100D9000DB1E012505FA04F4641E2140994005FA82
:100DA00003F35B1E1A401143BDE83440C6E701223D
:100DB00000F01F01174BFFE78A40400943F820204D
:100DC000704710B5401EB0F1807F01D3012010BDE7
:100DD000114C60600F214FF0FF30FFF7AFFF002292
:100DE000A26007202060002010BD04280A4904D119
:100DF000086840F00400086070470A6822F00402A6
:100E00000A60704718ED00E000E400E00CED00E03F
:100E10000000FA0500E100E010E000E000F000B89A
:100E2000704700002DE9F84F4FF0000E6D4A6E4BF1
:100E3000DFF8B8814FF00F0906468A460121DAF83B
:100E4000004001FA0EF10C408C4240F0BC80DAF810
:100E50000450022D18BF122D4FEA8E0012D14FEA16
:100E6000DE0506EB850C00F01C05DCF8207009FAA5
:100E700005FB27EA0B07DAF810B00BFA05F53D433E
:100E8000CCF820504FEA4E0C032537689AF804B08E
:100E900005FA0CF5ED430BF0030B2F400BFA0CFB9E
:100EA0004BEA07073760DAF80470012F18BF022FEA
:100EB00003D0112F18BF122F13D1B768DAF80CB076
:100EC0002F400BFA0CFB4BEA0707B760776827EA5D
:100ED0000101DAF80470C7F3001707FA0EF7394377
:100EE0007160F1680D40DAF8081001FA0CF129433D
:100EF000F160DAF80410C90065D50025009500F00E
:100F00000C00D8F8001041F48041C8F8001009FA2C
:100F100000F7D8F8005005F48045009500994FEA95
:100F20009E0153F8215025EA0707314DAE4208BF14
:100F3000002522D02F4DAE4208BF01251DD02E4DD9
:100F4000AE4208BF022518D02C4DAE4208BF032583
:100F500013D02B4DAE4208BF04250ED0294DAE4212
:100F600008BF052509D0284DAE4208BF062504D08C
:100F7000264DAE420CBF0725082505FA00F0384380
:100F800043F82100E0431168DAF804500140ED0312
:100F900048BF214311605168DAF804500140AD03A5
:100FA00048BF214351609168DAF804500140ED02D6
:100FB00048BF21439160D1680140DAF80400800203
:100FC00048BF2143D1600EF1010EBEF10F0F7FF635
:100FD00035AFBDE8F18F81B002B90904816101B07C
:100FE00070470000003C014008380140443802408E
:100FF000000002400004024000080240000C0240D1
:10100000001002400014024000180240001C024080
:101010007CB5044600F04EFF06460CB9012076BDB3
:1010200004F13405002028700220687000F0BDF93A
:1010300021680868C20720D500F03CFF801B062805
:10104000F6D320202862032015E0B0F5005F09D117
:10105000032E42D8DFE806F00C0A0C02B1F1C07F83
:101060003BD105E0022E03D9F61E36D1C80134D596
:10107000402028620120687076BD0A68DFF81803F6
:10108000024060680243A0680243E06802432069AE
:10109000024360690243A0690243E0690243206A97
:1010A0000243606A042803D1E36A206B03431A43B6
:1010B0000A6023685A69606AD208042840EAC202BA
:1010C0000BD1A66AE16A324339B1A0690028BCD1CC
:1010D000002E18BF022EC9D0C0D35A61204600F09E
:1010E0007FF9A96A3F228A4082600020286201209D
:1010F0006870002076BDF8B5044604F1340600257A
:101100003078776A012801D10220F2BD01203070C9
:101110007078012820D1022070703562204600F0DE
:101120004FF9B06A3F218140B9602068016841F001
:10113000160101602068416941F080014161F06859
:1011400020B12068016841F0080101602068026850
:1011500042F00102026001E0357002252846F2BD2E
:10116000F8B5064606F13404656A00F0A3FE0746AA
:101170006078022805D080212162002020700120A3
:10118000F2BD3068016821F01601016030684169E4
:1011900021F080014161E168002904BF60690028F5
:1011A00004D03068016821F00801016030680268ED
:1011B00052085200026030680168CA070BD500F07F
:1011C00079FEC01B0628F6D3202020620020207064
:1011D00003206070F2BDA06A3F218140A960002019
:1011E0002070012060700020F2BD90F835100229B7
:1011F00003D08022426501207047052180F8351018
:1012000000680168490849000160002070472DE925
:10121000FC41044604F134060020604900904FF47C
:101220001650776A0A683D68B2FBF0F8B06A082188
:1012300000F0B7F80ED02068026853070AD503689B
:1012400023F004030360B06A8140B960306A40F063
:1012500001003062B06A25FA00F1C9070BD5216898
:101260004A69110607D5012101FA00F0B860306A19
:1012700040F002003062042100F092F808D02168AA
:101280000A68930704D5B860306A40F00400306201
:10129000102100F085F81BD021680A68130717D5C4
:1012A000B860206801684A0307D5006801030BD5C0
:1012B000716969B1204688470AE00168CA0503D40C
:1012C000026822F008020260F16809B120468847EE
:1012D000B06A202100F065F841D021680A68D30681
:1012E0003DD5B86020687178052920D1026822F0C8
:1012F000160202602068416921F080014161F168B5
:10130000002904BF7069002804D02068016821F01A
:10131000080101603F22B06A8240BA6000F04BF8D9
:10132000F169002935D02046BDE8FC410847016835
:101330004A0307D5006801030DD4316979B120460D
:1013400088470CE00168CA0505D4026822F0100243
:10135000026000F030F8B16809B120468847306A71
:10136000B8B1316AC8070ED50520707000F01DF8BD
:1013700020680099491C8845009102D30168CA077A
:10138000F7D400F018F8B16919B12046BDE8FC4166
:101390000847BDE8F38100003F8010F00C000020FA
:1013A000B06A01FA00F005427047206801684908F8
:1013B0004900016070470020307001207070704754
:1013C00038B50468256825F4802525606360806849
:1013D000402802D1A260E16031BDA160E26031BD70
:1013E00081B0016801F0FF02103A1823B2FBF3F25A
:1013F00005A39B5CC365890A8902042A28BF091DCD
:101400008165084601B070470006101600061016E8
:1014100038B5040001D1012032BD00F022F808B92E
:1014200000F023F800F013F800F024F8FFE7416122
:1014300000F001F832BD2068C16841F40051C1607C
:101440000020686020206870A87000207047242069
:1014500068702068C16821F40051C160204600F026
:10146000DDB904F1380568787047002129702046FD
:10147000FFF740BA2068016921F4904101612068BA
:10148000416921F02A01704738B5044604F1380556
:101490001346A87820283ED109B1180001D10120B7
:1014A00032BD2878012836D001222A70A162A38596
:1014B000002068602220A870626B0FF21120D063B8
:1014C000626B0FF241201064626B0FF24120D06416
:1014D0000020626B10650A462068011D606BFFF7F3
:1014E0000AFE002000902068016800914268009286
:1014F000002200992A70C26842F48072C26020689B
:10150000416941F0010141612068416941F04001B8
:101510004161002032BD022032BD38B5044604F1DD
:101520003905206841692A78212A09D1090607D599
:1015300000F017F808B1FFF713FE204600F00BF992
:10154000206841696A78222A09D1490607D500F046
:101550000EF808B1FFF704FE204600F005F9002060
:1015600032BD416921F080014161206B70474169C2
:1015700021F040014161606B704738B50446256831
:101580002968EA686B6911F00F0007D188065DD5FC
:1015900090065BD52046BDE83240F9E0D80702D47A
:1015A00012F4907F52D0C80705D5D00503D5E06B63
:1015B00040F00100E063480705D5D80703D5E06B8C
:1015C00040F00200E063880705D5D80703D5E06B3B
:1015D00040F00400E063080705D5D80703D5E06BA9
:1015E00040F00800E063E06B00286ED0890604D567
:1015F000900644BF204600F0CBF820684069E16BBC
:101600000A0701D440061BD5204600F0ADF820683B
:1016100041694A060FD5FFF7AAFF60B10FF26511C5
:101620000165606BFFF7E1FD00284ED0606B016D36
:10163000BDE8344008472046BDE8324000F040BCD9
:10164000204600F03DFC0020E06331BD08062CD5AB
:1016500010062AD594F83900212836D1A168206ACD
:10166000B1F5805F0DD10188C1F30801696020697F
:1016700018B9216A881C206207E0206A411C216297
:1016800003E0411C216200786860E08C401EE08429
:1016900080B2D0B92068C16821F08001C1602068A3
:1016A000C16841F04001C16031BD48060DD550060A
:1016B0000BD5E86820F04000E860202184F839105C
:1016C0002046BDE8324000F0FCBB31BD816B0068B4
:1016D0000268D30513D40020C8850868C26822F4C4
:1016E0008072C2600868426952085200426108680C
:1016F000426922F040024261202081F83A00084607
:1017000000F0E0BB806B00F0DEBB000038B5846BFE
:101710002068406904F139052978212906D100069D
:1017200004D50020E084204600F015F820684069C8
:101730006978222906D1400604D50020E08520469C
:1017400000F012F8E06B40F01000E0632046BDE8C6
:10175000324000F0B5BB0168CA6822F0C002CA601E
:10176000202180F8391070470168CA6822F490720D
:10177000CA6001684A69520852004A61202180F813
:101780003A107047806B0021C185C18400F098BB7E
:1017900080B590F83A1022293ED18268B2F5805F78
:1017A00014D1826A016941B903685968C1F308011B
:1017B0001180826A911C816218E001684B6803F015
:1017C000FF031380816A4A1C82620FE001690029CD
:1017D000816A04D14A1C82620268536805E04A1C8F
:1017E00082620268536803F07F030B70C18D491E4B
:1017F000C18589B271B90168CA6822F49072CA6061
:1018000001684A69520852004A61202180F83A1062
:1018100000F058FB002002BD022002BD2DE9F04778
:101820000446642521680A69E06822F440520243B4
:101830000A611926CA6848480240A0680243206924
:10184000024360690243E0690243CA604A69A069D1
:1018500022F4407202434A61E3694048404AB3F5CA
:10186000004F3BD1914218BF814210D100F0E0FA05
:10187000074600F0DDFA804600F0DAFA814600F013
:10188000D7FA06FB09F9824600F0D2FA0FE000F021
:10189000C7FA074600F0C4FA804600F0C1FA814654
:1018A00000F0BEFA06FB09F9824600F0B9FA616859
:1018B000490000F057F8DB003233B3FBF5F35B006F
:1018C000B2FBF5F203F4F87300F05AF8ED0032358C
:1018D0006420B5FBF0F000F0070037E0914218BF3C
:1018E00081420ED100F0A4FA074600F0A1FA80462A
:1018F00000F09EFA814600F09BFA824600F098FACA
:101900000DE000F08DFA074600F08AFA804600F0FC
:1019100087FA814600F084FA824600F081FA06FBDD
:1019200009F96168890000F01DF81B013233B3FB2F
:10193000F5F3B2FBF5F203F0F00300F021F82D010E
:1019400032356420B5FBF0F000F00F002168C318B9
:101950008B60BDE8F0870000F369FFFF00140140D1
:10196000001001407743B7FBF1F206FB08F7B7FB25
:10197000F1F3B9FBF1F7B7FBF5F705FB1733704748
:1019800003EB021306FB0AF74643B7FBF1F2B6FB83
:10199000F1F06421B0FBF1F005FB10257047000069
:1019A00080B50B48016841F400710160026842F49F
:1019B00080620260016841F4807101600320FFF7DA
:1019C000CCF9002000F080FAFEF7FEFE002002BDF8
:1019D000003C024030B500F138031A78012A01D1E9
:1019E000022030BD01241C7002225A700268546823
:1019F00024F070045460046865680A6815436560E3
:101A00000268946824F080049460026894684868CE
:101A100004439460012058700020187030BD00000D
:101A20002DE9F843040017D02078B54EC10741D501
:101A3000B06800F00C00042807D0B06800F00C007B
:101A400008280BD17068410208D53168880331D568
:101A50006068002840F0B68001204FE16068B0F572
:101A6000803F06D0B0F5A02F316807D141F4802126
:101A70003160306840F48030306006E021F480311D
:101A80003160326822F480223260606868B100F010
:101A900011FA05463168880300F1948000F00AFAD3
:101AA000401B6528F6D3032028E100F003FA054621
:101AB0003068810340F1868000F0FCF9401B652806
:101AC000F6D3F0E700F0F6F9401B022840F2A780B9
:101AD000E9E7E06870B10121396000F0EBF90546F3
:101AE0003068810700F1CB8000F0E4F9401B022848
:101AF000F6D9D8E7386000F0DDF90546306881078F
:101B000063D500F0D7F9401B0228F7D9CBE708606E
:101B100000F0D0F90546706F810775D500F0CAF95D
:101B2000401B0228F7D9BEE70528306F06D140F0E8
:101B300004003067306F40F0010005E040084000CD
:101B40003067306F20F00400306741F28938A068B8
:101B500068B100F0AFF98146306F810700F19C80D9
:101B600000F0A8F9A0EB09004045F5D39BE700F091
:101B7000A1F98146306F810740F18E8000F09AF91B
:101B8000A0EB09004045F5D38DE700F093F9401B29
:101B9000022840F2968086E700F08CF9001B0228AC
:101BA00040F2A7807FE70020386600F083F9044602
:101BB0003068810140F1A18000F07CF9001B02280F
:101BC000F6D970E720784F4F81071BD5B06810F029
:101BD0000C0F09D0B06800F00C0008287FF479AF32
:101BE000706841023FF575AF3168880703D5E0683A
:101BF00001287FF431AF3168206921F0F80141EA12
:101C0000C0013160217808070DD560693E49002880
:101C10003FF47DAF01220A6000F04CF90546706F79
:101C200081077FF54FAF217848073AD5306C002502
:101C3000C1000AD400950125306C40F0805030641A
:101C4000306C00F0805000900098DFF8C080D8F829
:101C50000010C8051BD4D8F8000040F48070C8F804
:101C6000000000F027F98146D8F80010C8050ED40E
:101C700000F020F9A0EB09000228F5D913E730683D
:101C8000216920F0F80040EAC1003060BAE7A0689E
:101C900001287FF449AF4DE71DB1306C20F0805032
:101CA0003064A06948B3B16801F00C0108293FF421
:101CB000D3AE02287FF477AF0020386600F0FAF840
:101CC0000546306881013FF560AFE169206AA26A8C
:101CD0000143606A520841EA8011521EE06A41EAFB
:101CE000024141EA006171600121396600F0E2F8C9
:101CF0000446306881017FF54FAF0020BDE8F283D4
:101D00000038024000004742800E47420070004009
:101D10002DE9F84304000F4677D04A4E306800F0B2
:101D20000F00B84202D200F072F86ED12068464D22
:101D3000810712D5400703D5A86840F4E050A86099
:101D40002178080703D5A86840F46040A860A96816
:101D5000A06821F0F0010143A9602078C1074CD5AB
:101D60006068012802D129688A0305E0022818BFAB
:101D7000032803D129688A0103D446E02A68910721
:101D800043D5A968890840EA8100A86041F28939F1
:101D900000F090F88046A868616800F00C00B0EB95
:101DA000810F2AD000F086F8A0EB08004845F2D356
:101DB000032020E02078410705D5A968E06821F4D8
:101DC000E0510143A9602078010706D5A868216980
:101DD00020F4604040EAC100A86000F03FF8AA6823
:101DE0001A49C2F30312895C194AC84010600020E6
:101DF00000F06AF80020BDE8F283306800F00F00C0
:101E00008742D7D200F003F8D4D00120F3E737702F
:101E1000316801F00F01B94270470D480068704702
:101E20000B480C4A006813680B49C3F3822206E092
:101E30000748084A006813680749C3F34232895CBF
:101E4000C8407047003C0240003802408C21000826
:101E50000C000020083802403823000818B5124C46
:101E6000606800F00C00042802D0082802D019E0B5
:101E70000E4812BD00232268206841022068C0F38A
:101E800088104CBF09490A4902F03F02A1FB00013A
:101E900000F03AF82168C1F30141491C4900B0FB48
:101EA000F1F012BD024812BD0438024000127A005F
:101EB0000024F40001484068704700BF0000002083
:101EC000704770477047704738B50D4D0D4A2978F7
:101ED00004464FF47A70B0FBF1F11068B0FBF1F0FA
:101EE000FEF76FFF50B9102C08D2002221464FF0A8
:101EF000FF30FEF73FFFAC60002032BD012032BD55
:101F0000000000200C000020B3BBD9B1B2F5803F27
:101F10007DD2022A1ED98C46B1FBF2F102FB11C31D
:101F20001B0443EA1043B3FBF2FC02FB1C3380B2F8
:101F300040EA0343B3FBF2F002FB103240EA0C40EC
:101F400000237047022A05D98446B0FBF2F002FB59
:101F500010C270474AB105D100F0010249085FEA9A
:101F60003000704700220023704700F0E5B80B00F6
:101F70000200002100207047904271EB030CF6D361
:101F8000B3F5803F2FD2F0B5B3FA83F7B1FA81F4FD
:101F9000A7F10F0E3D1B5340CEF1200602FA0EF2C0
:101FA000F3415340B5F10F0746D80F3C2C44414054
:101FB000C4F12006A040F1414140B1FBF3F603FB20
:101FC0001611A2FB0645001BA94102D2761E8018FD
:101FD000594180EA010221FA0EF362FA0EF2002161
:101FE0005A403046F0BD30B4B1FBF3FC03FB1C118A
:101FF000A2FB0C45001BA94103D2ACF1010C8018D7
:10200000594130BC02460B46604600217047B2F190
:10201000807F65D3F0B5B2FA82F7B1FA81F4C7F1E7
:102020000F063D1B22FA06F307F1110EF24120358F
:102030005A40B5F10F07B8D94140C4F12006A0407D
:10204000F1414140B1FBF3FC03FB1C11A2FB0C4529
:10205000001BA94103D2BCF1010C801859410F2F7C
:1020600012D30F3FC90341EA5041B1FBF3F603FB22
:102070001611A2FB0645D4EBC030A94102D2761E50
:102080008018594146EACC3C07B34140C7F12006CD
:10209000B840F1414140B1FBF3F603FB1611A2FB3E
:1020A0000645001BA94102D2761E8018594180EADC
:1020B000010221FA0EF3C7F1200462FA0EF20CFAC3
:1020C00007F05A402CFA04F13043F0BD80EA0102D7
:1020D00021FA0EF3002162FA0EF260465A40F0BD7A
:1020E0008C46B1FBF2F102FB11C31B0243EA106301
:1020F000B3FBF2FC02FB1C331B024CEA002043EA58
:102100001063B3FBF2FC02FB1C331B024CEA002001
:1021100043EA1063B3FBF2FC02FB1C331B024CEAE4
:10212000002043EA1063B3FBF2FC02FB1C324CEAD2
:102130000020002370470000704700000E4801682F
:1021400041F47001016000220C49086840F0010070
:1021500008608A600A480A6802400A60002209484A
:102160004860086820F480200860CA604FF0006072
:10217000054908607047000088ED00E00038024023
:10218000FFFFF6FE1030002408ED00E00000000024
:1021900000000000010203040607080919E050F8D6
:1021A000042BD30744BFA9F101039A18091F002388
:1021B000042942F8043BF9D25FEA817C134604D536
:1021C0004FF0000CA2F800C09B1CC90744BF0021BF
:1021D000197050F8041B0029E1D170477047FEE7E1
:1021E000FEE7FEE7FEE770477047704780B500F0F6
:1021F00013F8BDE80140FEF711BE0448FFF7BDB972
:102200000348FEF71BB80348FFF701B8FC000020A5
:102210003C01002010000020024841680278891823
:10222000416070470000002010B450F8041B79B1E1
:102230000268436802440830DC0744BFA9F1010486
:10224000E31852F8044B43F8044B091FF9D1ECE7AB
:1022500010BC704710B5074979441831064C7C44CE
:10226000163404E00A68081D114488470146A1425B
:10227000F8D110BD2C0000004C0000004EF6885133
:10228000CEF20001086840F470000860BFF34F8F81
:10229000BFF36F8F4FF00070E1EE100A704700003F
:1022A000FDFEFFFF6801000010000020000000009C
:1022B00079FFFFFF10000000640000000000002014
:1022C0000000000000F00DF8002801D0FFF7C2FF69
:1022D000AFF300800020AFF30080FEF7B2FB00F008
:1022E00002F80120704700F001B8000007463846A8
:1022F00000F002F8FBE7000080B5AFF30080024A6F
:1023000011001820ABBEFBE7260002000148804701
:10231000014800473D2100082D230008010000006E
:1023200000000000100000000024F400AFF3008063
:10233000FFF7A4FFFFF7C6FF00000000010203043F
:10234000FFF7FEBFFFF7FEBFFFF7FEBFFFF7FEBFC1
:10235000FFF7FEBFFFF7FEBFFFF7FEBFFFF7FEBFB1
:10236000FFF7FEBFFFF7FEBFFFF7FEBFFFF7FEBFA1
:10237000FFF7FEBFFFF7FEBFFFF7FEBFFFF7FEBF91
:10238000FFF7FEBFFFF7FEBFFFF7FEBFFFF7FEBF81
:10239000FFF7FEBFFFF7FEBFFFF7FEBFFFF7FEBF71
:1023A000FFF7FEBFFFF7FEBFFFF7FEBFFFF7FEBF61
:1023B000FFF7FEBFFFF7FEBFFFF7FEBFFFF7FEBF51
:1023C000FFF7FEBFFFF7FEBFFFF7FEBFFFF7FEBF41
:1023D000FFF7FEBFFFF7FEBFFFF7FEBFFFF7FEBF31
:1023E000FFF7FEBFFFF7FEBFFFF7FEBFFFF7FEBF21
:1023F000FFF7FEBFFFF7FEBFFFF7FEBFFFF7FEBF11
:10240000FFF7FEBFFFF7FEBFFFF7FEBFFFF7FEBF00
:10241000FFF7FEBFFFF7FEBFFFF7FEBFFFF7FEBFF0
:10242000FFF7FEBFFFF7FEBFFFF7FEBFFFF7FEBFE0
:10243000FFF7FEBFFFF7FEBFFFF7FEBFFFF7FEBFD0
:10244000FFF7FEBFFFF7FEBFFFF7FEBFFFF7FEBFC0
:10245000FFF7FEBFFFF7FEBFFFF7FEBFFFF7FEBFB0
:10246000FFF7FEBFFFF7FEBFFFF7FEBFFFF7FEBFA0
:08247000FFF7FEBFFFF7FEBFFE
:040000050800232D9F
:00000001FF
